:0300000002029663
:0C029600787FE4F6D8FD75810A02021A98
:0F0286007DA57C06ED1D70011C144C70F7DFF197
:010295002246
:10005600EFD3940540037F0122120003FED39403DD
:1000660040037F0222EF7041EE700B9000011200F8
:100076001CF452935294120003B4010B9000011227
:10008600001C4293F45294120003FEB4020A90003C
:100096000112001C42934294EEB4030D900001122B
:1000A600001CFEF45293EE4294EF6401704312007A
:1000B60003FE700B90000112001CF452915292EE56
:1000C600B4010B90000112001C4291F452921200EE
:1000D60003B4020A90000112001C429142921200DF
:1000E60003B4030D90000112001CFEF45291EE427F
:1000F60092EF64027043120003FE700B900001122F
:10010600001CF452955296EEB4010B9000011200B9
:100116001C4295F45296120003B4020A9000011292
:10012600001C42954296120003B4030D9000011282
:10013600001CFEF45295EE4296EF640370431200E3
:1001460003FE700B90000112001CF452B152B2EE85
:10015600B4010B90000112001C42B1F452B212001D
:1001660003B4020A90000112001C42B142B212000E
:1001760003B4030D90000112001CFEF452B1EE42CE
:10018600B2EF64047043120003FE700B900001127C
:10019600001CF452B352B4EEB4010B9000011200ED
:1001A6001C42B3F452B4120003B4020A90000112C6
:1001B600001C42B342B4120003B4030D90000112B6
:1001C600001CFEF452B3EE42B4EF64057043120015
:1001D60003FF700B90000112001CF452C952CAEFC3
:1001E600B4010B90000112001C42C9F452CA12005D
:1001F60003B4020A90000112001C42C942CA12004E
:1002060003B4030D90000112001CFFF452C9EF4223
:04021600CA7F002279
:10027500750A087509037B007A0079097F02020077
:010285005622
:10024E00D2B37F32120286C2B3E4F509F50A7F32C9
:10025E00120286050AE50A70020509C39413E50920
:06026E006480948040E86A
:010274002267
:10021A001202750000007F01120286E4F50820B47C
:10022A000512024E80F812024E0508E508C3940A28
:10023A0040EC438F10D2AF4387020000007F0112C7
:04024A00028680CFD9
:030053000200495F
:04004900538FEF32B0
:10000300BB010689828A83E0225002E722BBFE02FB
:09001300E32289828A83E493222E
:10001C00BB010CE58229F582E5833AF583E0225099
:10002C0006E92582F8E622BBFE06E92582F8E222E3
:0D003C00E58229F582E5833AF583E49322FD
:00000001FF
